{
  "_format": "hh-sol-artifact-1",
  "contractName": "Marketplace",
  "sourceName": "src/backend/contracts/Marketplace.sol",
  "abi": [
    {
      "inputs": [
        {
          "internalType": "uint256",
          "name": "_feePercent",
          "type": "uint256"
        }
      ],
      "stateMutability": "nonpayable",
      "type": "constructor"
    },
    {
      "anonymous": false,
      "inputs": [
        {
          "indexed": false,
          "internalType": "uint256",
          "name": "itemId",
          "type": "uint256"
        },
        {
          "indexed": true,
          "internalType": "address",
          "name": "nft",
          "type": "address"
        },
        {
          "indexed": false,
          "internalType": "uint256",
          "name": "tokenId",
          "type": "uint256"
        },
        {
          "indexed": false,
          "internalType": "uint256",
          "name": "price",
          "type": "uint256"
        },
        {
          "indexed": true,
          "internalType": "address",
          "name": "seller",
          "type": "address"
        },
        {
          "indexed": true,
          "internalType": "address",
          "name": "buyer",
          "type": "address"
        }
      ],
      "name": "Bought",
      "type": "event"
    },
    {
      "anonymous": false,
      "inputs": [
        {
          "indexed": false,
          "internalType": "uint256",
          "name": "itemId",
          "type": "uint256"
        },
        {
          "indexed": true,
          "internalType": "address",
          "name": "nft",
          "type": "address"
        },
        {
          "indexed": false,
          "internalType": "uint256",
          "name": "tokenId",
          "type": "uint256"
        },
        {
          "indexed": false,
          "internalType": "uint256",
          "name": "price",
          "type": "uint256"
        },
        {
          "indexed": true,
          "internalType": "address",
          "name": "seller",
          "type": "address"
        }
      ],
      "name": "Offered",
      "type": "event"
    },
    {
      "inputs": [],
      "name": "feeAcount",
      "outputs": [
        {
          "internalType": "address payable",
          "name": "",
          "type": "address"
        }
      ],
      "stateMutability": "view",
      "type": "function"
    },
    {
      "inputs": [],
      "name": "feePercent",
      "outputs": [
        {
          "internalType": "uint256",
          "name": "",
          "type": "uint256"
        }
      ],
      "stateMutability": "view",
      "type": "function"
    },
    {
      "inputs": [
        {
          "internalType": "uint256",
          "name": "_itemId",
          "type": "uint256"
        }
      ],
      "name": "getTotalPrice",
      "outputs": [
        {
          "internalType": "uint256",
          "name": "",
          "type": "uint256"
        }
      ],
      "stateMutability": "view",
      "type": "function"
    },
    {
      "inputs": [],
      "name": "itemCount",
      "outputs": [
        {
          "internalType": "uint256",
          "name": "",
          "type": "uint256"
        }
      ],
      "stateMutability": "view",
      "type": "function"
    },
    {
      "inputs": [
        {
          "internalType": "uint256",
          "name": "",
          "type": "uint256"
        }
      ],
      "name": "items",
      "outputs": [
        {
          "internalType": "uint256",
          "name": "itemId",
          "type": "uint256"
        },
        {
          "internalType": "contract IERC721",
          "name": "nft",
          "type": "address"
        },
        {
          "internalType": "uint256",
          "name": "tokenId",
          "type": "uint256"
        },
        {
          "internalType": "uint256",
          "name": "price",
          "type": "uint256"
        },
        {
          "internalType": "address payable",
          "name": "seller",
          "type": "address"
        },
        {
          "internalType": "bool",
          "name": "sold",
          "type": "bool"
        }
      ],
      "stateMutability": "view",
      "type": "function"
    },
    {
      "inputs": [
        {
          "internalType": "contract IERC721",
          "name": "_nft",
          "type": "address"
        },
        {
          "internalType": "uint256",
          "name": "_tokenId",
          "type": "uint256"
        },
        {
          "internalType": "uint256",
          "name": "_price",
          "type": "uint256"
        }
      ],
      "name": "makeItem",
      "outputs": [],
      "stateMutability": "nonpayable",
      "type": "function"
    },
    {
      "inputs": [
        {
          "internalType": "uint256",
          "name": "_itemId",
          "type": "uint256"
        }
      ],
      "name": "purchaseItem",
      "outputs": [],
      "stateMutability": "payable",
      "type": "function"
    }
  ],
  "bytecode": "0x608060405234801561001057600080fd5b5060405161114d38038061114d8339818101604052810190610032919061009d565b600160008190555033600160006101000a81548173ffffffffffffffffffffffffffffffffffffffff021916908373ffffffffffffffffffffffffffffffffffffffff16021790555080600281905550506100e7565b600081519050610097816100d0565b92915050565b6000602082840312156100af57600080fd5b60006100bd84828501610088565b91505092915050565b6000819050919050565b6100d9816100c6565b81146100e457600080fd5b50565b611057806100f66000396000f3fe6080604052600436106100705760003560e01c8063bfb231d21161004e578063bfb231d2146100f6578063ca7dd37514610138578063d38ea5bf14610175578063fa00afc71461019157610070565b80635d145a24146100755780636bfb0d01146100a05780637fd6f15c146100cb575b600080fd5b34801561008157600080fd5b5061008a6101ba565b6040516100979190610afe565b60405180910390f35b3480156100ac57600080fd5b506100b56101e0565b6040516100c29190610bf0565b60405180910390f35b3480156100d757600080fd5b506100e06101e6565b6040516100ed9190610bf0565b60405180910390f35b34801561010257600080fd5b5061011d600480360381019061011891906109db565b6101ec565b60405161012f96959493929190610c0b565b60405180910390f35b34801561014457600080fd5b5061015f600480360381019061015a91906109db565b610275565b60405161016c9190610bf0565b60405180910390f35b61018f600480360381019061018a91906109db565b6102ba565b005b34801561019d57600080fd5b506101b860048036038101906101b3919061098c565b610690565b005b600160009054906101000a900473ffffffffffffffffffffffffffffffffffffffff1681565b60035481565b60025481565b60046020528060005260406000206000915090508060000154908060010160009054906101000a900473ffffffffffffffffffffffffffffffffffffffff16908060020154908060030154908060040160009054906101000a900473ffffffffffffffffffffffffffffffffffffffff16908060040160149054906101000a900460ff16905086565b6000606460025460646102889190610cb4565b60046000858152602001908152602001600020600301546102a99190610d3b565b6102b39190610d0a565b9050919050565b60026000541415610300576040517f08c379a00000000000000000000000000000000000000000000000000000000081526004016102f790610bb0565b60405180910390fd5b6002600081905550600061031382610275565b9050600060046000848152602001908152602001600020905060008311801561033e57506003548311155b61037d576040517f08c379a000000000000000000000000000000000000000000000000000000000815260040161037490610b90565b60405180910390fd5b813410156103c0576040517f08c379a00000000000000000000000000000000000000000000000000000000081526004016103b790610b70565b60405180910390fd5b600015158160040160149054906101000a900460ff16151514610418576040517f08c379a000000000000000000000000000000000000000000000000000000000815260040161040f90610b50565b60405180910390fd5b8060040160009054906101000a900473ffffffffffffffffffffffffffffffffffffffff1673ffffffffffffffffffffffffffffffffffffffff166108fc82600301549081150290604051600060405180830381858888f19350505050158015610486573d6000803e3d6000fd5b50600160009054906101000a900473ffffffffffffffffffffffffffffffffffffffff1673ffffffffffffffffffffffffffffffffffffffff166108fc8260030154846104d39190610d95565b9081150290604051600060405180830381858888f193505050501580156104fe573d6000803e3d6000fd5b5060018160040160146101000a81548160ff0219169083151502179055508060010160009054906101000a900473ffffffffffffffffffffffffffffffffffffffff1673ffffffffffffffffffffffffffffffffffffffff166323b872dd303384600201546040518463ffffffff1660e01b815260040161058193929190610b19565b600060405180830381600087803b15801561059b57600080fd5b505af11580156105af573d6000803e3d6000fd5b505050503373ffffffffffffffffffffffffffffffffffffffff168160040160009054906101000a900473ffffffffffffffffffffffffffffffffffffffff1673ffffffffffffffffffffffffffffffffffffffff168260010160009054906101000a900473ffffffffffffffffffffffffffffffffffffffff1673ffffffffffffffffffffffffffffffffffffffff167f8b4c9c8a607d67b321582dd8461041b1dc2ceeca70c8b7f37f8e02095cf2e76d868560020154866003015460405161067b93929190610c6c565b60405180910390a45050600160008190555050565b600260005414156106d6576040517f08c379a00000000000000000000000000000000000000000000000000000000081526004016106cd90610bb0565b60405180910390fd5b600260008190555060008111610721576040517f08c379a000000000000000000000000000000000000000000000000000000000815260040161071890610bd0565b60405180910390fd5b6003600081548092919061073490610e59565b91905055508273ffffffffffffffffffffffffffffffffffffffff166323b872dd3330856040518463ffffffff1660e01b815260040161077693929190610b19565b600060405180830381600087803b15801561079057600080fd5b505af11580156107a4573d6000803e3d6000fd5b505050506040518060c0016040528060035481526020018473ffffffffffffffffffffffffffffffffffffffff1681526020018381526020018281526020013373ffffffffffffffffffffffffffffffffffffffff168152602001600015158152506004600060035481526020019081526020016000206000820151816000015560208201518160010160006101000a81548173ffffffffffffffffffffffffffffffffffffffff021916908373ffffffffffffffffffffffffffffffffffffffff160217905550604082015181600201556060820151816003015560808201518160040160006101000a81548173ffffffffffffffffffffffffffffffffffffffff021916908373ffffffffffffffffffffffffffffffffffffffff16021790555060a08201518160040160146101000a81548160ff0219169083151502179055509050503373ffffffffffffffffffffffffffffffffffffffff168373ffffffffffffffffffffffffffffffffffffffff167f655a0cf9c8db81512be9a76dc1c5ae5380b8816ce6ad659cd61b715e2999d59a600354858560405161094d93929190610c6c565b60405180910390a36001600081905550505050565b60008135905061097181610ff3565b92915050565b6000813590506109868161100a565b92915050565b6000806000606084860312156109a157600080fd5b60006109af86828701610962565b93505060206109c086828701610977565b92505060406109d186828701610977565b9150509250925092565b6000602082840312156109ed57600080fd5b60006109fb84828501610977565b91505092915050565b610a0d81610ddb565b82525050565b610a1c81610dc9565b82525050565b610a2b81610ded565b82525050565b610a3a81610e35565b82525050565b6000610a4d601183610ca3565b9150610a5882610f00565b602082019050919050565b6000610a70603383610ca3565b9150610a7b82610f29565b604082019050919050565b6000610a93601183610ca3565b9150610a9e82610f78565b602082019050919050565b6000610ab6601f83610ca3565b9150610ac182610fa1565b602082019050919050565b6000610ad9601c83610ca3565b9150610ae482610fca565b602082019050919050565b610af881610e2b565b82525050565b6000602082019050610b136000830184610a04565b92915050565b6000606082019050610b2e6000830186610a13565b610b3b6020830185610a13565b610b486040830184610aef565b949350505050565b60006020820190508181036000830152610b6981610a40565b9050919050565b60006020820190508181036000830152610b8981610a63565b9050919050565b60006020820190508181036000830152610ba981610a86565b9050919050565b60006020820190508181036000830152610bc981610aa9565b9050919050565b60006020820190508181036000830152610be981610acc565b9050919050565b6000602082019050610c056000830184610aef565b92915050565b600060c082019050610c206000830189610aef565b610c2d6020830188610a31565b610c3a6040830187610aef565b610c476060830186610aef565b610c546080830185610a04565b610c6160a0830184610a22565b979650505050505050565b6000606082019050610c816000830186610aef565b610c8e6020830185610aef565b610c9b6040830184610aef565b949350505050565b600082825260208201905092915050565b6000610cbf82610e2b565b9150610cca83610e2b565b9250827fffffffffffffffffffffffffffffffffffffffffffffffffffffffffffffffff03821115610cff57610cfe610ea2565b5b828201905092915050565b6000610d1582610e2b565b9150610d2083610e2b565b925082610d3057610d2f610ed1565b5b828204905092915050565b6000610d4682610e2b565b9150610d5183610e2b565b9250817fffffffffffffffffffffffffffffffffffffffffffffffffffffffffffffffff0483118215151615610d8a57610d89610ea2565b5b828202905092915050565b6000610da082610e2b565b9150610dab83610e2b565b925082821015610dbe57610dbd610ea2565b5b828203905092915050565b6000610dd482610e0b565b9050919050565b6000610de682610e0b565b9050919050565b60008115159050919050565b6000610e0482610dc9565b9050919050565b600073ffffffffffffffffffffffffffffffffffffffff82169050919050565b6000819050919050565b6000610e4082610e47565b9050919050565b6000610e5282610e0b565b9050919050565b6000610e6482610e2b565b91507fffffffffffffffffffffffffffffffffffffffffffffffffffffffffffffffff821415610e9757610e96610ea2565b5b600182019050919050565b7f4e487b7100000000000000000000000000000000000000000000000000000000600052601160045260246000fd5b7f4e487b7100000000000000000000000000000000000000000000000000000000600052601260045260246000fd5b7f6974656d20616c726561647920736f6c64000000000000000000000000000000600082015250565b7f6e6f7420656e6f75676820657468657220746f20636f766572206974656d207060008201527f7269636520616e64206d61726b65742066656500000000000000000000000000602082015250565b7f6974656d20646f65736e74206578697374000000000000000000000000000000600082015250565b7f5265656e7472616e637947756172643a207265656e7472616e742063616c6c00600082015250565b7f5072696365206d7573742062652067726561746572207468616e203000000000600082015250565b610ffc81610df9565b811461100757600080fd5b50565b61101381610e2b565b811461101e57600080fd5b5056fea26469706673582212207920e46a5f8b061fa670da4851b07f63ad63a56e4373c6ce03ff191ae6c11dc764736f6c63430008040033",
  "linkReferences": {},
  "deployedLinkReferences": {}
}